{
    "contractName": "TokenBase",
    "abi": [
        {
            "inputs": [
                {
                    "internalType": "string",
                    "name": "name",
                    "type": "string"
                },
                {
                    "internalType": "string",
                    "name": "symbol",
                    "type": "string"
                }
            ],
            "stateMutability": "nonpayable",
            "type": "constructor"
        },
        {
            "anonymous": false,
            "inputs": [
                {
                    "indexed": true,
                    "internalType": "address",
                    "name": "owner",
                    "type": "address"
                },
                {
                    "indexed": true,
                    "internalType": "address",
                    "name": "spender",
                    "type": "address"
                },
                {
                    "indexed": false,
                    "internalType": "uint256",
                    "name": "value",
                    "type": "uint256"
                }
            ],
            "name": "Approval",
            "type": "event"
        },
        {
            "anonymous": false,
            "inputs": [
                {
                    "indexed": true,
                    "internalType": "address",
                    "name": "from",
                    "type": "address"
                },
                {
                    "indexed": true,
                    "internalType": "address",
                    "name": "to",
                    "type": "address"
                },
                {
                    "indexed": false,
                    "internalType": "uint256",
                    "name": "value",
                    "type": "uint256"
                }
            ],
            "name": "Transfer",
            "type": "event"
        },
        {
            "inputs": [],
            "name": "admin",
            "outputs": [
                {
                    "internalType": "address",
                    "name": "",
                    "type": "address"
                }
            ],
            "stateMutability": "view",
            "type": "function"
        },
        {
            "inputs": [
                {
                    "internalType": "address",
                    "name": "owner",
                    "type": "address"
                },
                {
                    "internalType": "address",
                    "name": "spender",
                    "type": "address"
                }
            ],
            "name": "allowance",
            "outputs": [
                {
                    "internalType": "uint256",
                    "name": "",
                    "type": "uint256"
                }
            ],
            "stateMutability": "view",
            "type": "function"
        },
        {
            "inputs": [
                {
                    "internalType": "address",
                    "name": "spender",
                    "type": "address"
                },
                {
                    "internalType": "uint256",
                    "name": "amount",
                    "type": "uint256"
                }
            ],
            "name": "approve",
            "outputs": [
                {
                    "internalType": "bool",
                    "name": "",
                    "type": "bool"
                }
            ],
            "stateMutability": "nonpayable",
            "type": "function"
        },
        {
            "inputs": [
                {
                    "internalType": "address",
                    "name": "account",
                    "type": "address"
                }
            ],
            "name": "balanceOf",
            "outputs": [
                {
                    "internalType": "uint256",
                    "name": "",
                    "type": "uint256"
                }
            ],
            "stateMutability": "view",
            "type": "function"
        },
        {
            "inputs": [
                {
                    "internalType": "address",
                    "name": "owner",
                    "type": "address"
                },
                {
                    "internalType": "uint256",
                    "name": "amount",
                    "type": "uint256"
                }
            ],
            "name": "burn",
            "outputs": [],
            "stateMutability": "nonpayable",
            "type": "function"
        },
        {
            "inputs": [],
            "name": "decimals",
            "outputs": [
                {
                    "internalType": "uint8",
                    "name": "",
                    "type": "uint8"
                }
            ],
            "stateMutability": "view",
            "type": "function"
        },
        {
            "inputs": [
                {
                    "internalType": "address",
                    "name": "spender",
                    "type": "address"
                },
                {
                    "internalType": "uint256",
                    "name": "subtractedValue",
                    "type": "uint256"
                }
            ],
            "name": "decreaseAllowance",
            "outputs": [
                {
                    "internalType": "bool",
                    "name": "",
                    "type": "bool"
                }
            ],
            "stateMutability": "nonpayable",
            "type": "function"
        },
        {
            "inputs": [
                {
                    "internalType": "address",
                    "name": "spender",
                    "type": "address"
                },
                {
                    "internalType": "uint256",
                    "name": "addedValue",
                    "type": "uint256"
                }
            ],
            "name": "increaseAllowance",
            "outputs": [
                {
                    "internalType": "bool",
                    "name": "",
                    "type": "bool"
                }
            ],
            "stateMutability": "nonpayable",
            "type": "function"
        },
        {
            "inputs": [
                {
                    "internalType": "address",
                    "name": "to",
                    "type": "address"
                },
                {
                    "internalType": "uint256",
                    "name": "amount",
                    "type": "uint256"
                }
            ],
            "name": "mint",
            "outputs": [],
            "stateMutability": "nonpayable",
            "type": "function"
        },
        {
            "inputs": [],
            "name": "name",
            "outputs": [
                {
                    "internalType": "string",
                    "name": "",
                    "type": "string"
                }
            ],
            "stateMutability": "view",
            "type": "function"
        },
        {
            "inputs": [],
            "name": "symbol",
            "outputs": [
                {
                    "internalType": "string",
                    "name": "",
                    "type": "string"
                }
            ],
            "stateMutability": "view",
            "type": "function"
        },
        {
            "inputs": [],
            "name": "totalSupply",
            "outputs": [
                {
                    "internalType": "uint256",
                    "name": "",
                    "type": "uint256"
                }
            ],
            "stateMutability": "view",
            "type": "function"
        },
        {
            "inputs": [
                {
                    "internalType": "address",
                    "name": "recipient",
                    "type": "address"
                },
                {
                    "internalType": "uint256",
                    "name": "amount",
                    "type": "uint256"
                }
            ],
            "name": "transfer",
            "outputs": [
                {
                    "internalType": "bool",
                    "name": "",
                    "type": "bool"
                }
            ],
            "stateMutability": "nonpayable",
            "type": "function"
        },
        {
            "inputs": [
                {
                    "internalType": "address",
                    "name": "sender",
                    "type": "address"
                },
                {
                    "internalType": "address",
                    "name": "recipient",
                    "type": "address"
                },
                {
                    "internalType": "uint256",
                    "name": "amount",
                    "type": "uint256"
                }
            ],
            "name": "transferFrom",
            "outputs": [
                {
                    "internalType": "bool",
                    "name": "",
                    "type": "bool"
                }
            ],
            "stateMutability": "nonpayable",
            "type": "function"
        },
        {
            "inputs": [
                {
                    "internalType": "address",
                    "name": "newAdmin",
                    "type": "address"
                }
            ],
            "name": "updateAdmin",
            "outputs": [],
            "stateMutability": "nonpayable",
            "type": "function"
        }
    ],
    "bytecode": "60806040523480156200001157600080fd5b5060405162000f5838038062000f588339810160408190526200003491620001de565b8151829082906200004d90600390602085019062000081565b5080516200006390600490602084019062000081565b5050600580546001600160a01b03191633179055506200029b915050565b8280546200008f9062000248565b90600052602060002090601f016020900481019282620000b35760008555620000fe565b82601f10620000ce57805160ff1916838001178555620000fe565b82800160010185558215620000fe579182015b82811115620000fe578251825591602001919060010190620000e1565b506200010c92915062000110565b5090565b5b808211156200010c576000815560010162000111565b600082601f8301126200013957600080fd5b81516001600160401b038082111562000156576200015662000285565b604051601f8301601f19908116603f0116810190828211818310171562000181576200018162000285565b816040528381526020925086838588010111156200019e57600080fd5b600091505b83821015620001c25785820183015181830184015290820190620001a3565b83821115620001d45760008385830101525b9695505050505050565b60008060408385031215620001f257600080fd5b82516001600160401b03808211156200020a57600080fd5b620002188683870162000127565b935060208501519150808211156200022f57600080fd5b506200023e8582860162000127565b9150509250929050565b600181811c908216806200025d57607f821691505b602082108114156200027f57634e487b7160e01b600052602260045260246000fd5b50919050565b634e487b7160e01b600052604160045260246000fd5b610cad80620002ab6000396000f3fe608060405234801561001057600080fd5b50600436106100f55760003560e01c806370a0823111610097578063a9059cbb11610066578063a9059cbb146101ee578063dd62ed3e14610201578063e2f273bd1461023a578063f851a4401461024d57600080fd5b806370a082311461019757806395d89b41146101c05780639dc29fac146101c8578063a457c2d7146101db57600080fd5b806323b872dd116100d357806323b872dd1461014d578063313ce56714610160578063395093511461016f57806340c10f191461018257600080fd5b806306fdde03146100fa578063095ea7b31461011857806318160ddd1461013b575b600080fd5b610102610278565b60405161010f9190610b7e565b60405180910390f35b61012b610126366004610b54565b61030a565b604051901515815260200161010f565b6002545b60405190815260200161010f565b61012b61015b366004610b18565b610320565b6040516012815260200161010f565b61012b61017d366004610b54565b6103d6565b610195610190366004610b54565b61040d565b005b61013f6101a5366004610ac3565b6001600160a01b031660009081526020819052604090205490565b610102610445565b6101956101d6366004610b54565b610454565b61012b6101e9366004610b54565b610488565b61012b6101fc366004610b54565b610523565b61013f61020f366004610ae5565b6001600160a01b03918216600090815260016020908152604080832093909416825291909152205490565b610195610248366004610ac3565b610530565b600554610260906001600160a01b031681565b6040516001600160a01b03909116815260200161010f565b60606003805461028790610c26565b80601f01602080910402602001604051908101604052809291908181526020018280546102b390610c26565b80156103005780601f106102d557610100808354040283529160200191610300565b820191906000526020600020905b8154815290600101906020018083116102e357829003601f168201915b5050505050905090565b600061031733848461057c565b50600192915050565b600061032d8484846106a1565b6001600160a01b0384166000908152600160209081526040808320338452909152902054828110156103b75760405162461bcd60e51b815260206004820152602860248201527f45524332303a207472616e7366657220616d6f756e74206578636565647320616044820152676c6c6f77616e636560c01b60648201526084015b60405180910390fd5b6103cb85336103c68685610c0f565b61057c565b506001949350505050565b3360008181526001602090815260408083206001600160a01b038716845290915281205490916103179185906103c6908690610bf7565b6005546001600160a01b031633146104375760405162461bcd60e51b81526004016103ae90610bd3565b6104418282610879565b5050565b60606004805461028790610c26565b6005546001600160a01b0316331461047e5760405162461bcd60e51b81526004016103ae90610bd3565b6104418282610958565b3360009081526001602090815260408083206001600160a01b03861684529091528120548281101561050a5760405162461bcd60e51b815260206004820152602560248201527f45524332303a2064656372656173656420616c6c6f77616e63652062656c6f77604482015264207a65726f60d81b60648201526084016103ae565b61051933856103c68685610c0f565b5060019392505050565b60006103173384846106a1565b6005546001600160a01b0316331461055a5760405162461bcd60e51b81526004016103ae90610bd3565b600580546001600160a01b0319166001600160a01b0392909216919091179055565b6001600160a01b0383166105de5760405162461bcd60e51b8152602060048201526024808201527f45524332303a20617070726f76652066726f6d20746865207a65726f206164646044820152637265737360e01b60648201526084016103ae565b6001600160a01b03821661063f5760405162461bcd60e51b815260206004820152602260248201527f45524332303a20617070726f766520746f20746865207a65726f206164647265604482015261737360f01b60648201526084016103ae565b6001600160a01b0383811660008181526001602090815260408083209487168084529482529182902085905590518481527f8c5be1e5ebec7d5bd14f71427d1e84f3dd0314c0f7b2291e5b200ac8c7c3b92591015b60405180910390a3505050565b6001600160a01b0383166107055760405162461bcd60e51b815260206004820152602560248201527f45524332303a207472616e736665722066726f6d20746865207a65726f206164604482015264647265737360d81b60648201526084016103ae565b6001600160a01b0382166107675760405162461bcd60e51b815260206004820152602360248201527f45524332303a207472616e7366657220746f20746865207a65726f206164647260448201526265737360e81b60648201526084016103ae565b6001600160a01b038316600090815260208190526040902054818110156107df5760405162461bcd60e51b815260206004820152602660248201527f45524332303a207472616e7366657220616d6f756e7420657863656564732062604482015265616c616e636560d01b60648201526084016103ae565b6107e98282610c0f565b6001600160a01b03808616600090815260208190526040808220939093559085168152908120805484929061081f908490610bf7565b92505081905550826001600160a01b0316846001600160a01b03167fddf252ad1be2c89b69c2b068fc378daa952ba7f163c4a11628f55a4df523b3ef8460405161086b91815260200190565b60405180910390a350505050565b6001600160a01b0382166108cf5760405162461bcd60e51b815260206004820152601f60248201527f45524332303a206d696e7420746f20746865207a65726f20616464726573730060448201526064016103ae565b80600260008282546108e19190610bf7565b90915550506001600160a01b0382166000908152602081905260408120805483929061090e908490610bf7565b90915550506040518181526001600160a01b038316906000907fddf252ad1be2c89b69c2b068fc378daa952ba7f163c4a11628f55a4df523b3ef9060200160405180910390a35050565b6001600160a01b0382166109b85760405162461bcd60e51b815260206004820152602160248201527f45524332303a206275726e2066726f6d20746865207a65726f206164647265736044820152607360f81b60648201526084016103ae565b6001600160a01b03821660009081526020819052604090205481811015610a2c5760405162461bcd60e51b815260206004820152602260248201527f45524332303a206275726e20616d6f756e7420657863656564732062616c616e604482015261636560f01b60648201526084016103ae565b610a368282610c0f565b6001600160a01b03841660009081526020819052604081209190915560028054849290610a64908490610c0f565b90915550506040518281526000906001600160a01b038516907fddf252ad1be2c89b69c2b068fc378daa952ba7f163c4a11628f55a4df523b3ef90602001610694565b80356001600160a01b0381168114610abe57600080fd5b919050565b600060208284031215610ad557600080fd5b610ade82610aa7565b9392505050565b60008060408385031215610af857600080fd5b610b0183610aa7565b9150610b0f60208401610aa7565b90509250929050565b600080600060608486031215610b2d57600080fd5b610b3684610aa7565b9250610b4460208501610aa7565b9150604084013590509250925092565b60008060408385031215610b6757600080fd5b610b7083610aa7565b946020939093013593505050565b600060208083528351808285015260005b81811015610bab57858101830151858201604001528201610b8f565b81811115610bbd576000604083870101525b50601f01601f1916929092016040019392505050565b6020808252600a908201526937b7363c9030b236b4b760b11b604082015260600190565b60008219821115610c0a57610c0a610c61565b500190565b600082821015610c2157610c21610c61565b500390565b600181811c90821680610c3a57607f821691505b60208210811415610c5b57634e487b7160e01b600052602260045260246000fd5b50919050565b634e487b7160e01b600052601160045260246000fdfea264697066735822122061a7b03272c610ba02030ad7deee51c53e304c9b165f491742a077a6a6225d2f64736f6c63430008070033",
    "sourcePath": "/home/dell/317-eth-bsc-decentralized-bridge/contracts/TokenBase.sol",
    "compiler": {
        "name": "solc",
        "version": "0.8.7+commit.e28d00a7"
    },
    "functionHashes": {
        "admin()": "f851a440",
        "allowance(address,address)": "dd62ed3e",
        "approve(address,uint256)": "095ea7b3",
        "balanceOf(address)": "70a08231",
        "burn(address,uint256)": "9dc29fac",
        "decimals()": "313ce567",
        "decreaseAllowance(address,uint256)": "a457c2d7",
        "increaseAllowance(address,uint256)": "39509351",
        "mint(address,uint256)": "40c10f19",
        "name()": "06fdde03",
        "symbol()": "95d89b41",
        "totalSupply()": "18160ddd",
        "transfer(address,uint256)": "a9059cbb",
        "transferFrom(address,address,uint256)": "23b872dd",
        "updateAdmin(address)": "e2f273bd"
    },
    "gasEstimates": {
        "creation": {
            "codeDepositCost": "649000",
            "executionCost": "infinite",
            "totalCost": "infinite"
        },
        "external": {
            "admin()": "2425",
            "allowance(address,address)": "infinite",
            "approve(address,uint256)": "24643",
            "balanceOf(address)": "2563",
            "burn(address,uint256)": "infinite",
            "decimals()": "222",
            "decreaseAllowance(address,uint256)": "27036",
            "increaseAllowance(address,uint256)": "27002",
            "mint(address,uint256)": "infinite",
            "name()": "infinite",
            "symbol()": "infinite",
            "totalSupply()": "2349",
            "transfer(address,uint256)": "51251",
            "transferFrom(address,address,uint256)": "infinite",
            "updateAdmin(address)": "26777"
        }
    }
}